{
  "contractName": "KaseyCoin",
  "abi": [
    {
      "inputs": [
        {
          "internalType": "string",
          "name": "name",
          "type": "string"
        },
        {
          "internalType": "string",
          "name": "symbol",
          "type": "string"
        },
        {
          "internalType": "uint256",
          "name": "initialSupply",
          "type": "uint256"
        }
      ],
      "stateMutability": "nonpayable",
      "type": "constructor"
    },
    {
      "anonymous": false,
      "inputs": [
        {
          "indexed": true,
          "internalType": "address",
          "name": "owner",
          "type": "address"
        },
        {
          "indexed": true,
          "internalType": "address",
          "name": "spender",
          "type": "address"
        },
        {
          "indexed": false,
          "internalType": "uint256",
          "name": "value",
          "type": "uint256"
        }
      ],
      "name": "Approval",
      "type": "event"
    },
    {
      "anonymous": false,
      "inputs": [
        {
          "indexed": true,
          "internalType": "address",
          "name": "from",
          "type": "address"
        },
        {
          "indexed": true,
          "internalType": "address",
          "name": "to",
          "type": "address"
        },
        {
          "indexed": false,
          "internalType": "uint256",
          "name": "value",
          "type": "uint256"
        }
      ],
      "name": "Transfer",
      "type": "event"
    },
    {
      "inputs": [
        {
          "internalType": "address",
          "name": "owner",
          "type": "address"
        },
        {
          "internalType": "address",
          "name": "spender",
          "type": "address"
        }
      ],
      "name": "allowance",
      "outputs": [
        {
          "internalType": "uint256",
          "name": "",
          "type": "uint256"
        }
      ],
      "stateMutability": "view",
      "type": "function"
    },
    {
      "inputs": [
        {
          "internalType": "address",
          "name": "spender",
          "type": "address"
        },
        {
          "internalType": "uint256",
          "name": "amount",
          "type": "uint256"
        }
      ],
      "name": "approve",
      "outputs": [
        {
          "internalType": "bool",
          "name": "",
          "type": "bool"
        }
      ],
      "stateMutability": "nonpayable",
      "type": "function"
    },
    {
      "inputs": [
        {
          "internalType": "address",
          "name": "account",
          "type": "address"
        }
      ],
      "name": "balanceOf",
      "outputs": [
        {
          "internalType": "uint256",
          "name": "",
          "type": "uint256"
        }
      ],
      "stateMutability": "view",
      "type": "function"
    },
    {
      "inputs": [],
      "name": "decimals",
      "outputs": [
        {
          "internalType": "uint8",
          "name": "",
          "type": "uint8"
        }
      ],
      "stateMutability": "view",
      "type": "function"
    },
    {
      "inputs": [
        {
          "internalType": "address",
          "name": "spender",
          "type": "address"
        },
        {
          "internalType": "uint256",
          "name": "subtractedValue",
          "type": "uint256"
        }
      ],
      "name": "decreaseAllowance",
      "outputs": [
        {
          "internalType": "bool",
          "name": "",
          "type": "bool"
        }
      ],
      "stateMutability": "nonpayable",
      "type": "function"
    },
    {
      "inputs": [
        {
          "internalType": "address",
          "name": "spender",
          "type": "address"
        },
        {
          "internalType": "uint256",
          "name": "addedValue",
          "type": "uint256"
        }
      ],
      "name": "increaseAllowance",
      "outputs": [
        {
          "internalType": "bool",
          "name": "",
          "type": "bool"
        }
      ],
      "stateMutability": "nonpayable",
      "type": "function"
    },
    {
      "inputs": [],
      "name": "name",
      "outputs": [
        {
          "internalType": "string",
          "name": "",
          "type": "string"
        }
      ],
      "stateMutability": "view",
      "type": "function"
    },
    {
      "inputs": [],
      "name": "symbol",
      "outputs": [
        {
          "internalType": "string",
          "name": "",
          "type": "string"
        }
      ],
      "stateMutability": "view",
      "type": "function"
    },
    {
      "inputs": [],
      "name": "totalSupply",
      "outputs": [
        {
          "internalType": "uint256",
          "name": "",
          "type": "uint256"
        }
      ],
      "stateMutability": "view",
      "type": "function"
    },
    {
      "inputs": [
        {
          "internalType": "address",
          "name": "recipient",
          "type": "address"
        },
        {
          "internalType": "uint256",
          "name": "amount",
          "type": "uint256"
        }
      ],
      "name": "transfer",
      "outputs": [
        {
          "internalType": "bool",
          "name": "",
          "type": "bool"
        }
      ],
      "stateMutability": "nonpayable",
      "type": "function"
    },
    {
      "inputs": [
        {
          "internalType": "address",
          "name": "sender",
          "type": "address"
        },
        {
          "internalType": "address",
          "name": "recipient",
          "type": "address"
        },
        {
          "internalType": "uint256",
          "name": "amount",
          "type": "uint256"
        }
      ],
      "name": "transferFrom",
      "outputs": [
        {
          "internalType": "bool",
          "name": "",
          "type": "bool"
        }
      ],
      "stateMutability": "nonpayable",
      "type": "function"
    },
    {
      "inputs": [
        {
          "internalType": "uint256",
          "name": "x",
          "type": "uint256"
        }
      ],
      "name": "set",
      "outputs": [],
      "stateMutability": "nonpayable",
      "type": "function"
    },
    {
      "inputs": [],
      "name": "get",
      "outputs": [
        {
          "internalType": "uint256",
          "name": "",
          "type": "uint256"
        }
      ],
      "stateMutability": "view",
      "type": "function"
    },
    {
      "inputs": [],
      "name": "getUserAddress",
      "outputs": [
        {
          "internalType": "address",
          "name": "",
          "type": "address"
        }
      ],
      "stateMutability": "view",
      "type": "function"
    },
    {
      "inputs": [],
      "name": "getUserName",
      "outputs": [
        {
          "internalType": "string",
          "name": "",
          "type": "string"
        }
      ],
      "stateMutability": "view",
      "type": "function"
    }
  ],
  "bytecode": "0x60806040523480156200001157600080fd5b5060405162001b1738038062001b17833981810160405281019062000037919062000344565b82828160039080519060200190620000519291906200020b565b5080600490805190602001906200006a9291906200020b565b5050506200007f33826200008860201b60201c565b50505062000650565b600073ffffffffffffffffffffffffffffffffffffffff168273ffffffffffffffffffffffffffffffffffffffff161415620000fb576040517f08c379a0000000000000000000000000000000000000000000000000000000008152600401620000f2906200041f565b60405180910390fd5b6200010f600083836200020160201b60201c565b8060026000828254620001239190620004d6565b92505081905550806000808473ffffffffffffffffffffffffffffffffffffffff1673ffffffffffffffffffffffffffffffffffffffff16815260200190815260200160002060008282546200017a9190620004d6565b925050819055508173ffffffffffffffffffffffffffffffffffffffff16600073ffffffffffffffffffffffffffffffffffffffff167fddf252ad1be2c89b69c2b068fc378daa952ba7f163c4a11628f55a4df523b3ef83604051620001e1919062000441565b60405180910390a3620001fd600083836200020660201b60201c565b5050565b505050565b505050565b828054620002199062000573565b90600052602060002090601f0160209004810192826200023d576000855562000289565b82601f106200025857805160ff191683800117855562000289565b8280016001018555821562000289579182015b82811115620002885782518255916020019190600101906200026b565b5b5090506200029891906200029c565b5090565b5b80821115620002b75760008160009055506001016200029d565b5090565b6000620002d2620002cc8462000492565b6200045e565b905082815260208101848484011115620002eb57600080fd5b620002f88482856200053d565b509392505050565b600082601f8301126200031257600080fd5b815162000324848260208601620002bb565b91505092915050565b6000815190506200033e8162000636565b92915050565b6000806000606084860312156200035a57600080fd5b600084015167ffffffffffffffff8111156200037557600080fd5b620003838682870162000300565b935050602084015167ffffffffffffffff811115620003a157600080fd5b620003af8682870162000300565b9250506040620003c2868287016200032d565b9150509250925092565b6000620003db601f83620004c5565b91507f45524332303a206d696e7420746f20746865207a65726f2061646472657373006000830152602082019050919050565b620004198162000533565b82525050565b600060208201905081810360008301526200043a81620003cc565b9050919050565b60006020820190506200045860008301846200040e565b92915050565b6000604051905081810181811067ffffffffffffffff8211171562000488576200048762000607565b5b8060405250919050565b600067ffffffffffffffff821115620004b057620004af62000607565b5b601f19601f8301169050602081019050919050565b600082825260208201905092915050565b6000620004e38262000533565b9150620004f08362000533565b9250827fffffffffffffffffffffffffffffffffffffffffffffffffffffffffffffffff03821115620005285762000527620005a9565b5b828201905092915050565b6000819050919050565b60005b838110156200055d57808201518184015260208101905062000540565b838111156200056d576000848401525b50505050565b600060028204905060018216806200058c57607f821691505b60208210811415620005a357620005a2620005d8565b5b50919050565b7f4e487b7100000000000000000000000000000000000000000000000000000000600052601160045260246000fd5b7f4e487b7100000000000000000000000000000000000000000000000000000000600052602260045260246000fd5b7f4e487b7100000000000000000000000000000000000000000000000000000000600052604160045260246000fd5b620006418162000533565b81146200064d57600080fd5b50565b6114b780620006606000396000f3fe608060405234801561001057600080fd5b50600436106100f55760003560e01c806360fe47b111610097578063a457c2d711610066578063a457c2d71461028a578063a9059cbb146102ba578063dd62ed3e146102ea578063ebc3eee81461031a576100f5565b806360fe47b1146102025780636d4ce63c1461021e57806370a082311461023c57806395d89b411461026c576100f5565b806318160ddd116100d357806318160ddd1461016657806323b872dd14610184578063313ce567146101b457806339509351146101d2576100f5565b806306fdde03146100fa578063095ea7b31461011857806312958f1c14610148575b600080fd5b610102610338565b60405161010f9190611180565b60405180910390f35b610132600480360381019061012d9190610da6565b6103ca565b60405161013f9190611165565b60405180910390f35b6101506103e8565b60405161015d9190611180565b60405180910390f35b61016e61042d565b60405161017b9190611282565b60405180910390f35b61019e60048036038101906101999190610d57565b610437565b6040516101ab9190611165565b60405180910390f35b6101bc61052f565b6040516101c9919061129d565b60405180910390f35b6101ec60048036038101906101e79190610da6565b610538565b6040516101f99190611165565b60405180910390f35b61021c60048036038101906102179190610de2565b6105e4565b005b6102266105ee565b6040516102339190611282565b60405180910390f35b61025660048036038101906102519190610cf2565b6105f8565b6040516102639190611282565b60405180910390f35b610274610640565b6040516102819190611180565b60405180910390f35b6102a4600480360381019061029f9190610da6565b6106d2565b6040516102b19190611165565b60405180910390f35b6102d460048036038101906102cf9190610da6565b6107bd565b6040516102e19190611165565b60405180910390f35b61030460048036038101906102ff9190610d1b565b6107db565b6040516103119190611282565b60405180910390f35b610322610862565b60405161032f919061114a565b60405180910390f35b606060038054610347906113b2565b80601f0160208091040260200160405190810160405280929190818152602001828054610373906113b2565b80156103c05780601f10610395576101008083540402835291602001916103c0565b820191906000526020600020905b8154815290600101906020018083116103a357829003601f168201915b5050505050905090565b60006103de6103d761086a565b8484610872565b6001905092915050565b6060600660003373ffffffffffffffffffffffffffffffffffffffff1673ffffffffffffffffffffffffffffffffffffffff1681526020019081526020016000205090565b6000600254905090565b6000610444848484610a3d565b6000600160008673ffffffffffffffffffffffffffffffffffffffff1673ffffffffffffffffffffffffffffffffffffffff168152602001908152602001600020600061048f61086a565b73ffffffffffffffffffffffffffffffffffffffff1673ffffffffffffffffffffffffffffffffffffffff1681526020019081526020016000205490508281101561050f576040517f08c379a000000000000000000000000000000000000000000000000000000000815260040161050690611202565b60405180910390fd5b6105238561051b61086a565b858403610872565b60019150509392505050565b60006012905090565b60006105da61054561086a565b84846001600061055361086a565b73ffffffffffffffffffffffffffffffffffffffff1673ffffffffffffffffffffffffffffffffffffffff16815260200190815260200160002060008873ffffffffffffffffffffffffffffffffffffffff1673ffffffffffffffffffffffffffffffffffffffff168152602001908152602001600020546105d591906112d4565b610872565b6001905092915050565b8060058190555050565b6000600554905090565b60008060008373ffffffffffffffffffffffffffffffffffffffff1673ffffffffffffffffffffffffffffffffffffffff168152602001908152602001600020549050919050565b60606004805461064f906113b2565b80601f016020809104026020016040519081016040528092919081815260200182805461067b906113b2565b80156106c85780601f1061069d576101008083540402835291602001916106c8565b820191906000526020600020905b8154815290600101906020018083116106ab57829003601f168201915b5050505050905090565b600080600160006106e161086a565b73ffffffffffffffffffffffffffffffffffffffff1673ffffffffffffffffffffffffffffffffffffffff16815260200190815260200160002060008573ffffffffffffffffffffffffffffffffffffffff1673ffffffffffffffffffffffffffffffffffffffff1681526020019081526020016000205490508281101561079e576040517f08c379a000000000000000000000000000000000000000000000000000000000815260040161079590611262565b60405180910390fd5b6107b26107a961086a565b85858403610872565b600191505092915050565b60006107d16107ca61086a565b8484610a3d565b6001905092915050565b6000600160008473ffffffffffffffffffffffffffffffffffffffff1673ffffffffffffffffffffffffffffffffffffffff16815260200190815260200160002060008373ffffffffffffffffffffffffffffffffffffffff1673ffffffffffffffffffffffffffffffffffffffff16815260200190815260200160002054905092915050565b600033905090565b600033905090565b600073ffffffffffffffffffffffffffffffffffffffff168373ffffffffffffffffffffffffffffffffffffffff1614156108e2576040517f08c379a00000000000000000000000000000000000000000000000000000000081526004016108d990611242565b60405180910390fd5b600073ffffffffffffffffffffffffffffffffffffffff168273ffffffffffffffffffffffffffffffffffffffff161415610952576040517f08c379a0000000000000000000000000000000000000000000000000000000008152600401610949906111c2565b60405180910390fd5b80600160008573ffffffffffffffffffffffffffffffffffffffff1673ffffffffffffffffffffffffffffffffffffffff16815260200190815260200160002060008473ffffffffffffffffffffffffffffffffffffffff1673ffffffffffffffffffffffffffffffffffffffff168152602001908152602001600020819055508173ffffffffffffffffffffffffffffffffffffffff168373ffffffffffffffffffffffffffffffffffffffff167f8c5be1e5ebec7d5bd14f71427d1e84f3dd0314c0f7b2291e5b200ac8c7c3b92583604051610a309190611282565b60405180910390a3505050565b600073ffffffffffffffffffffffffffffffffffffffff168373ffffffffffffffffffffffffffffffffffffffff161415610aad576040517f08c379a0000000000000000000000000000000000000000000000000000000008152600401610aa490611222565b60405180910390fd5b600073ffffffffffffffffffffffffffffffffffffffff168273ffffffffffffffffffffffffffffffffffffffff161415610b1d576040517f08c379a0000000000000000000000000000000000000000000000000000000008152600401610b14906111a2565b60405180910390fd5b610b28838383610cbe565b60008060008573ffffffffffffffffffffffffffffffffffffffff1673ffffffffffffffffffffffffffffffffffffffff16815260200190815260200160002054905081811015610bae576040517f08c379a0000000000000000000000000000000000000000000000000000000008152600401610ba5906111e2565b60405180910390fd5b8181036000808673ffffffffffffffffffffffffffffffffffffffff1673ffffffffffffffffffffffffffffffffffffffff16815260200190815260200160002081905550816000808573ffffffffffffffffffffffffffffffffffffffff1673ffffffffffffffffffffffffffffffffffffffff1681526020019081526020016000206000828254610c4191906112d4565b925050819055508273ffffffffffffffffffffffffffffffffffffffff168473ffffffffffffffffffffffffffffffffffffffff167fddf252ad1be2c89b69c2b068fc378daa952ba7f163c4a11628f55a4df523b3ef84604051610ca59190611282565b60405180910390a3610cb8848484610cc3565b50505050565b505050565b505050565b600081359050610cd781611453565b92915050565b600081359050610cec8161146a565b92915050565b600060208284031215610d0457600080fd5b6000610d1284828501610cc8565b91505092915050565b60008060408385031215610d2e57600080fd5b6000610d3c85828601610cc8565b9250506020610d4d85828601610cc8565b9150509250929050565b600080600060608486031215610d6c57600080fd5b6000610d7a86828701610cc8565b9350506020610d8b86828701610cc8565b9250506040610d9c86828701610cdd565b9150509250925092565b60008060408385031215610db957600080fd5b6000610dc785828601610cc8565b9250506020610dd885828601610cdd565b9150509250929050565b600060208284031215610df457600080fd5b6000610e0284828501610cdd565b91505092915050565b610e148161132a565b82525050565b610e238161133c565b82525050565b6000610e34826112b8565b610e3e81856112c3565b9350610e4e81856020860161137f565b610e5781611442565b840191505092915050565b6000610e6f6023836112c3565b91507f45524332303a207472616e7366657220746f20746865207a65726f206164647260008301527f65737300000000000000000000000000000000000000000000000000000000006020830152604082019050919050565b6000610ed56022836112c3565b91507f45524332303a20617070726f766520746f20746865207a65726f20616464726560008301527f73730000000000000000000000000000000000000000000000000000000000006020830152604082019050919050565b6000610f3b6026836112c3565b91507f45524332303a207472616e7366657220616d6f756e742065786365656473206260008301527f616c616e636500000000000000000000000000000000000000000000000000006020830152604082019050919050565b6000610fa16028836112c3565b91507f45524332303a207472616e7366657220616d6f756e742065786365656473206160008301527f6c6c6f77616e63650000000000000000000000000000000000000000000000006020830152604082019050919050565b60006110076025836112c3565b91507f45524332303a207472616e736665722066726f6d20746865207a65726f20616460008301527f64726573730000000000000000000000000000000000000000000000000000006020830152604082019050919050565b600061106d6024836112c3565b91507f45524332303a20617070726f76652066726f6d20746865207a65726f2061646460008301527f72657373000000000000000000000000000000000000000000000000000000006020830152604082019050919050565b60006110d36025836112c3565b91507f45524332303a2064656372656173656420616c6c6f77616e63652062656c6f7760008301527f207a65726f0000000000000000000000000000000000000000000000000000006020830152604082019050919050565b61113581611368565b82525050565b61114481611372565b82525050565b600060208201905061115f6000830184610e0b565b92915050565b600060208201905061117a6000830184610e1a565b92915050565b6000602082019050818103600083015261119a8184610e29565b905092915050565b600060208201905081810360008301526111bb81610e62565b9050919050565b600060208201905081810360008301526111db81610ec8565b9050919050565b600060208201905081810360008301526111fb81610f2e565b9050919050565b6000602082019050818103600083015261121b81610f94565b9050919050565b6000602082019050818103600083015261123b81610ffa565b9050919050565b6000602082019050818103600083015261125b81611060565b9050919050565b6000602082019050818103600083015261127b816110c6565b9050919050565b6000602082019050611297600083018461112c565b92915050565b60006020820190506112b2600083018461113b565b92915050565b600081519050919050565b600082825260208201905092915050565b60006112df82611368565b91506112ea83611368565b9250827fffffffffffffffffffffffffffffffffffffffffffffffffffffffffffffffff0382111561131f5761131e6113e4565b5b828201905092915050565b600061133582611348565b9050919050565b60008115159050919050565b600073ffffffffffffffffffffffffffffffffffffffff82169050919050565b6000819050919050565b600060ff82169050919050565b60005b8381101561139d578082015181840152602081019050611382565b838111156113ac576000848401525b50505050565b600060028204905060018216806113ca57607f821691505b602082108114156113de576113dd611413565b5b50919050565b7f4e487b7100000000000000000000000000000000000000000000000000000000600052601160045260246000fd5b7f4e487b7100000000000000000000000000000000000000000000000000000000600052602260045260246000fd5b6000601f19601f8301169050919050565b61145c8161132a565b811461146757600080fd5b50565b61147381611368565b811461147e57600080fd5b5056fea26469706673582212206187defd8bf9f6b530d4b7d462130f9029dda34aa838c2183d4ba200a300874164736f6c63430008000033",
  "immutableReferences": {},
  "source": "// SPDX-License-Identifier: MIT\npragma solidity ^0.8.0;\nimport \"@openzeppelin/contracts/token/ERC20/ERC20.sol\";\n\ncontract KaseyCoin is ERC20{\n  uint storedData;\n\n  mapping(address => string) usernames;\n\n  constructor(string memory name, string memory symbol, uint256 initialSupply) ERC20(name, symbol){\n    _mint(msg.sender, initialSupply);\n  }\n\n  function set(uint x) public {\n    storedData = x;\n  }\n\n  function get() public view returns (uint) {\n    return storedData;\n  }\n\n  function getUserAddress() public view returns (address) {\n    return msg.sender;\n  }\n\n  function setUserName(string memory _username) private {\n    usernames[msg.sender] = _username;\n  }\n\n  function getUserName() public view returns (string memory) {\n    usernames[msg.sender];\n  }\n\n}\n",
  "sourcePath": "/Users/kaseyclary/Solidity/KaseyCoin/contracts/KaseyCoin.sol",
  "compiler": {
    "name": "solc",
    "version": "0.8.0+commit.c7dfd78e.Emscripten.clang"
  },
  "schemaVersion": "3.4.3",
  "updatedAt": "2021-11-09T02:39:03.424Z",
  "devdoc": {
    "kind": "dev",
    "methods": {
      "allowance(address,address)": {
        "details": "See {IERC20-allowance}."
      },
      "approve(address,uint256)": {
        "details": "See {IERC20-approve}. Requirements: - `spender` cannot be the zero address."
      },
      "balanceOf(address)": {
        "details": "See {IERC20-balanceOf}."
      },
      "decimals()": {
        "details": "Returns the number of decimals used to get its user representation. For example, if `decimals` equals `2`, a balance of `505` tokens should be displayed to a user as `5.05` (`505 / 10 ** 2`). Tokens usually opt for a value of 18, imitating the relationship between Ether and Wei. This is the value {ERC20} uses, unless this function is overridden; NOTE: This information is only used for _display_ purposes: it in no way affects any of the arithmetic of the contract, including {IERC20-balanceOf} and {IERC20-transfer}."
      },
      "decreaseAllowance(address,uint256)": {
        "details": "Atomically decreases the allowance granted to `spender` by the caller. This is an alternative to {approve} that can be used as a mitigation for problems described in {IERC20-approve}. Emits an {Approval} event indicating the updated allowance. Requirements: - `spender` cannot be the zero address. - `spender` must have allowance for the caller of at least `subtractedValue`."
      },
      "increaseAllowance(address,uint256)": {
        "details": "Atomically increases the allowance granted to `spender` by the caller. This is an alternative to {approve} that can be used as a mitigation for problems described in {IERC20-approve}. Emits an {Approval} event indicating the updated allowance. Requirements: - `spender` cannot be the zero address."
      },
      "name()": {
        "details": "Returns the name of the token."
      },
      "symbol()": {
        "details": "Returns the symbol of the token, usually a shorter version of the name."
      },
      "totalSupply()": {
        "details": "See {IERC20-totalSupply}."
      },
      "transfer(address,uint256)": {
        "details": "See {IERC20-transfer}. Requirements: - `recipient` cannot be the zero address. - the caller must have a balance of at least `amount`."
      },
      "transferFrom(address,address,uint256)": {
        "details": "See {IERC20-transferFrom}. Emits an {Approval} event indicating the updated allowance. This is not required by the EIP. See the note at the beginning of {ERC20}. Requirements: - `sender` and `recipient` cannot be the zero address. - `sender` must have a balance of at least `amount`. - the caller must have allowance for ``sender``'s tokens of at least `amount`."
      }
    },
    "version": 1
  },
  "userdoc": {
    "kind": "user",
    "methods": {},
    "version": 1
  }
}